S00C000050726163372E6D6F74B8
S10700003706FFFFBD
S11300044904550461046D047904850491049D0430
S1130014A904B504C104CD04D904E504F104FD0420
S11300240905150521052D053905450551055D0508
S11300346905750581058D05FFFFFFFFFFFF990520
S1130044A505B105BD05C905D505E105ED05F90508
S11300540506FFFFFFFFFFFFFFFF1106FFFF1D065D
S1130064FFFFFFFFFFFFFFFFFFFFFFFFFFFFFFFF98
S10F0074FFFFFFFFFFFFFFFFFFFF290657
S10700C0EFFFE885DD
S10D00C4000000000000000000002E
S11300D8C3C13207FF4900006C80480000C0C2D782
S11300E8C3C13207FF4900005C7F480000C0C2D783
S11300F8C3C13207FF4900007C80480000C0C2D752
S113010820105131980151389802513298035137CF
S11301189804513398055136980651349807513547
S11301289808F19809F6B80EF6B80CF6B80AC9F0AA
S113013827FFADF0BDF2DAF2517F480000FCF80069
S113014800EC4501002012F6B810F6B80EF6B80C0B
S113015888169DF0980488189DF09805881A9DF0D3
S11301689806881C9DF09807881E9DF0980888209A
S11301789DF0980988229DF0980A88249DF0980B90
S1130188C9F01200AEF8BDF0041200BDF004F2FF8D
S1130198B800FCC8020088049DF0705100BDF288C4
S11301A8059DF0CDF100ADF206F0BDF288069DF094
S11301B8CDF100ADF206F0BDF288079DF0CDF10057
S11301C8ADF206F0B81088089DF0705100BDF288B1
S11301D8099DF0CDF100ADF206F0BDF2880A9DF05C
S11301E8CDF100ADF206F0BDF2880B9DF0CDF10023
S11301F8ADF206F0B80EA810BDF251009FE800A8B1
S11302080EBEF0ADF2BEF200AEF6BDF0ADF0B80C25
S1130218BDF0B802BDF01012D7200A300800B804A7
S1130228F6B806F6B802F6B808EC7A0200A808BDD3
S1130238F0A80E06F0BDF0BDF2FAF28B9DF0CDF1F8
S113024800ADF004D0FFB802A8081630080027BD96
S1130258F4A802BDF051009FE800ADF4BEF0ADF083
S1130268BEF200AEF6BDF2A80606F2B806A808A1CA
S1130278B808A804BDF0A80846F071FF7177F161C9
S1130288D8EC350200A806BDF0B800BDF0100AD7B6
S11302982008A80CBDF0B800300B00B802FCC30756
S11302A800ADF0B806E4F0A80644000061F8ECBC20
S11302B80200F4F08DF0705100B804BDF01008D7B6
S11302C8200C300800B806F6B80AEC3C0300F6B86F
S11302D808EC240300A80ABDF0A81006F0BDF0BD80
S11302E8F4FAF48B9DF2A808BDF0A81006F0BDF04E
S11302F8BDF4FAF48B9DF08DF24BF061E3EC1F032F
S113030800A80ABDF0B800A808BDF0B802A810BD3E
S1130318F0B804FC520300A808A1B808A806BDF068
S1130328A80846F071FF7177F161D8ECDD0200A8E6
S11303380AA1B80AA806BDF0A80A46F071FF7177A9
S1130348F161D8ECD60200100CD72002A806BDF043
S1130358A80A06F0BDF0BDF2FAF28B9DF09801A848
S113036806BDF0A80A06F0BDF0A808BDF2A80A0662
S1130378F2BDF2BDF4FAF48B9DF2ADF0BDF4DAF4FB
S11303888DF2480000A808BDF0A80A06F0BDF08860
S1130398019DF2ADF0BDF4DAF48DF24800001002CC
S11303A8D7FBF8FFAC0416EF00530061C9D1DD0395
S11303B883EFF893637553FF8363728261E9746111
S11303C8C9614C61D3136381614D61C314DD126249
S11303D8614DDDE461D3E4EFDF61E961B961F9EF0F
S11303E8E5D7FBF8FF17040400168B0E040E080E5D
S11303F80C708C020E060E0A0E0ED6BDF0D7FBF852
S1130408FFAC0416530052005008634C08DD116118
S1130418C92C30D660610A72835108612B70EFEAE7
S113042862705100BDF0D7FBF8FF8C044C0BDD075C
S113043861D3092C0BEFF5CDF001EF03CDF000D714
S1130448D761CFC1C3C5C7C6C4C2C061FC61CFC12F
S1130458C3C5C7C6C4C2C061FC61CFC1C3C5C7C6D2
S1130468C4C2C061FC61CFC1C3C5C7C6C4C2C06130
S1130478FC61CFC1C3C5C7C6C4C2C061FC61CFC1DA
S1130488C3C5C7C6C4C2C061FC61CFC1C3C5C7C6A2
S1130498C4C2C061FC61CFC1C3C5C7C6C4C2C06100
S11304A8FC61CFC1C3C5C7C6C4C2C061FC61CFC1AA
S11304B8C3C5C7C6C4C2C061FC61CFC1C3C5C7C672
S11304C8C4C2C061FC61CFC1C3C5C7C6C4C2C061D0
S11304D8FC61CFC1C3C5C7C6C4C2C061FC61CFC17A
S11304E8C3C5C7C6C4C2C061FC61CFC1C3C5C7C642
S11304F8C4C2C061FC61CFC1C3C5C7C6C4C2C061A0
S1130508FC61CFC1C3C5C7C6C4C2C061FC61CFC149
S1130518C3C5C7C6C4C2C061FC61CFC1C3C5C7C611
S1130528C4C2C061FC61CFC1C3C5C7C6C4C2C0616F
S1130538FC61CFC1C3C5C7C6C4C2C061FC61CFC119
S1130548C3C5C7C6C4C2C061FC61CFC1C3C5C7C6E1
S1130558C4C2C061FC61CFC1C3C5C7C6C4C2C0613F
S1130568FC61CFC1C3C5C7C6C4C2C061FC61CFC1E9
S1130578C3C5C7C6C4C2C061FC61CFC1C3C5C7C6B1
S1130588C4C2C061FC61CFC1C3C5C7C6C4C2C0610F
S1130598FC61CFC1C3C5C7C6C4C2C061FC61CFC1B9
S11305A8C3C5C7C6C4C2C061FC61CFC1C3C5C7C681
S11305B8C4C2C061FC61CFC1C3C5C7C6C4C2C061DF
S11305C8FC61CFC1C3C5C7C6C4C2C061FC61CFC189
S11305D8C3C5C7C6C4C2C061FC61CFC1C3C5C7C651
S11305E8C4C2C061FC61CFC1C3C5C7C6C4C2C061AF
S11305F8FC61CFC1C3C5C7C6C4C2C061FC61CFC159
S1130608C3C5C7C6C4C2C061FC61CFC1C3C5C7C620
S1130618C4C2C061FC61CFC1C3C5C7C6C4C2C0617E
S1130628FC61CFC1C3C5C7C6C4C2C061FC3706CB11
S1130638F800FE410061CF342A083600EF61DF3646
S113064800EF3000EF27311E440000DD0EB161CF0A
S113065811A9BBA5A5A7A761DFEFED61CF3600EF10
S113066830000061DF3000EF27311E440000DD0A4E
S1130678B161CFBBA7A761DFEFF161CFFC480400EC
S113068800300000C1C1C1FC080100EFFEC9F00040
S113069800D7FBF8FFAC0A61490861C3F0AC08BD98
S11306A8F2AC0ABDF4ADF4440000DF05C9F2000061
S11306B8D7C9F00000320100ADF471FCDC3046F219
S11306C861C32B311DBDF4311CEFEDADF446F2616D
S11306D8C312ADF226F4BDF28DF0616A9DF08DF17E
S11306E8616B9DF1ADF4311EBDF413311E12134438
S11306F80000DFD7D7A808BDF0D7FBF8FFAC0A6124
S1130708490861C3F0AC08BDF0AC0ABDF4ADF444CB
S11307180000DF05C9F00000D7320100ADF471FC18
S1130728DC2046F061C31B311DBDF482EFEEADF44D
S113073846F061C306ADF026F4BDF0ADF4311EBD3C
S1130748F492D2DFE9D7FE49FFD7FEADFFD73400D4
S113075800880571FCDC0A880771FCDC19FE32FF8D
S1130768D7AEF804040016300000612900BB550117
S1130778880771FCDE0FAEF804060016300000612D
S11307882900BB5401FE0AFF65D1DD0EAEF804044E
S11307980016300000612900BB65617CDD0B30F078
S11307A8FE16300000612900BB64D1DD0DAEF804EB
S11307B8060016300000612900BBD7340000880504
S11307C871FCDC0A880771FCDC19FE2DFFD7AEF832
S11307D804040016300000612900BB550188077124
S11307E8FCDE0DAEF804060016300000612900BBDB
S11307F8FE07FF65D1DD1830F0FE163000006129D0
S113080800BBAEF804040016300000612900BB6484
S1130818D1DD0DAEF804060016300000612900BBD6
S1050828D700F3
S9030637BF
