S00F000075617274546573742E6D6F7416
S1070000250BFFFFCA
S1130004D609D609D609D609D609D609D609D609F0
S113001452097308D609D609D609D609D609D609C8
S1130024D609D609D609D609D609D609D609D609D0
S1130034D609D609D609D609D609D609D609D609C0
S1130044D609D609D609D609D609D609D609D609B0
S1130054D609D609D609D609D609D609D609D609A0
S1130064D609D609D609D609D609D609D609D60990
S10F0074D609D609D609D609D609D60942
S10700C0EFFFE184E5
S10D00C4000000000000000000002E
S11300D82006C9F0A0FFADF0BDF2DAF251104800D5
S11300E800C9F0A1FFADF0BDF4FAF48B9DF26AF2F9
S11300F880ADF0DAF48DF2480000C9F0A4FFADF049
S1130108BDF4FAF48B9DF25AF2EFADF0DAF48DF205
S1130118480000C9F0A1FFADF0BDF4FAF48B9DF2DC
S11301285AF2BFADF0DAF48DF2480000F6B804ECE8
S11301384B010000A804BDF0B802BDF2B800A1BD8F
S1130148F0B804A804BDF044A00061E3EC3B01004E
S1130158C9F0F300ADF0BDF4DAF4F1480000C9F0D9
S1130168A4FFADF0BDF4FAF48B9DF25AF2BFADF0E2
S1130178DAF48DF2480000C9F0A1FFADF0BDF4FA3D
S1130188F48B9DF25AF2FEADF0DAF48DF2480000D9
S11301981006D72002C9F0A8FFADF0BDF2FAF28B21
S11301A89DF098011002D7C9F0F000ADF0BDF4FA43
S11301B8F48B9DF26AF280ADF0DAF48DF248000017
S11301C8C9F090FFADF0BDF2DAF2F6780000C9F09C
S11301D8E7FFADF0BDF4FAF48B9DF26AF204ADF0DA
S11301E8DAF48DF2480000C9F0E3FFADF0BDF4FA8B
S11301F8F48B9DF25AF2FBADF0DAF48DF24800006C
S1130208C9F0EFFFADF0BDF4FAF48B9DF26AF20485
S1130218ADF0DAF48DF2480000C9F0EBFFADF0BDA3
S1130228F4FAF48B9DF26AF204ADF0DAF48DF24834
S11302380000C9F090FFADF0BDF2DAF23047017862
S11302480000D7C9F2E3FFADF2BDF0FAF08B9DF4DC
S11302585AF4FBADF2DAF08DF4480000C9F2E7FF76
S1130268ADF2BDF0FAF08B9DF45AF4FBADF2DAF07E
S11302788DF4480000C9F490FFC9F290FFADF2BDB7
S1130288F0FAF0ABBDF28DF26C009DF08DF36C804A
S11302989DF1ADF4BDF2DAF2ADF0780000D7C9F201
S11302A8E7FFADF2BDF0FAF08B9DF46AF404ADF209
S11302B8DAF08DF4480000C9F2E3FFADF2BDF0FABC
S11302C8F08B9DF45AF4FBADF2DAF08DF44800009B
S11302D8C9F490FFC9F290FFADF2BDF0FAF0ABBDDE
S11302E8F28DF25CFF9DF08DF35C7F9DF1ADF4BD62
S11302F8F2DAF2ADF0780000D7D7C9F007FFADF015
S1130308BDF2DAF2F1480000C9F04000ADF0BDF2E8
S1130318DAF25108480000C9F04100ADF0BDF2DA44
S1130328F25112480000C9F027FFADF0BDF2DAF22D
S1130338517F480000D7C9F0F000ADF0BDF4FAF4DD
S11303488B9DF26AF208ADF0DAF48DF248000000F1
S1130358000000C9F06601ADF0BDF2DAF230220007
S1130368780000FC700300D761EFC161CFC9E8646D
S113037801C9F66401ADF6BDF0FAF0ABBDF68DF631
S11303886C039DF48DF76C009DF5DAE8ADF4780004
S113039800C9F4E5FFADF4BDF2FAF28B9DF66AF6F6
S11303A801ADF4BDF0DAF08DF6480000C9F4E1FFC0
S11303B8ADF4BDF2FAF28B9DF65AF6FEADF4BDF03B
S11303C8DAF08DF6480000C9F4E5FFADF4BDF2FAA1
S11303D8F28B9DF66AF602ADF4BDF0DAF08DF648BC
S11303E80000C9F4E1FFADF4BDF2FAF28B9DF65AB0
S11303F8F6FDADF4BDF0DAF08DF6480000C9F4E579
S1130408FFADF4BDF2FAF28B9DF66AF604ADF4BDC5
S1130418F0DAF08DF6480000C9F4E1FFADF4BDF25E
S1130428FAF28B9DF65AF6FBADF4BDF0DAF08DF6D0
S1130438480000C9F4EDFFADF4BDF2FAF28B9DF665
S11304486AF601ADF4BDF0DAF08DF6480000C9F49F
S1130458E9FFADF4BDF2FAF28B9DF66AF601ADF44C
S1130468BDF0DAF08DF6480000C9F4EDFFADF4BD37
S1130478F2FAF28B9DF66AF602ADF4BDF0DAF08D6D
S1130488F6480000C9F4E9FFADF4BDF2FAF28B9D19
S1130498F66AF602ADF4BDF0DAF08DF6480000C94C
S11304A8F45001ADF4BDF2DAF2302200780000C94C
S11304B8F45801ADF4BDF0DAF0309780780000C943
S11304C8F448FFADF4BDF2DAF230009A780000C9BE
S11304D8F47000C9F67000ADF6BDF0FAF08B9DF625
S11304E86AF610ADF4BDF2DAF28DF6480000C9F4EC
S11304F84A01ADF4BDF0DAF0300700780000C9F421
S11305085201ADF4BDF2DAF2302201780000C9F4E8
S11305185A01ADF4BDF0DAF0309740780000C9F420
S11305284AFFADF4BDF2DAF230009A780000C9F659
S11305386801C9F46801ADF4BDF0FAF0ABBDF48DFF
S1130548F46C019DF28DF56C009DF3ADF6BDF4DA03
S1130558F4ADF2780000C9F47401C9F27401ADF283
S1130568BDF0FAF0ABBDF2ADF4BDF0DAF0ADF2785F
S11305780000C9F46A01C9F26A01ADF2BDF0FAF0EB
S1130588ABBDF28DF26C019DF08DF36C009DF1AD65
S1130598F4BDF2DAF2ADF0780000C9F021FFC9F237
S11305A821FFADF2BDF4FAF48B9DF26AF210ADF0BE
S11305B8BDF4DAF48DF2480000C9F001FFC9F20174
S11305C8FFADF2BDF4FAF48B9DF26AF208ADF0BD0A
S11305D8F4DAF48DF2480000C9F021FFC9F221FFD2
S11305E8ADF2BDF4FAF48B9DF25AF2F7ADF0BDF416
S11305F8DAF48DF248000061EFC061CFD761EFC132
S113060861CFC9E86801C9F66801ADF6BDF0FAF032
S1130618ABBDF68DF66C019DF48DF76C009DF5DA93
S1130628E8ADF4780000C9F66A01C9F46A01ADF4CA
S1130638BDF2FAF2ABBDF48DF46C019DF28DF56C4C
S1130648009DF3ADF6BDF4DAF4ADF2780000C9F418
S11306586201C9F26201ADF2BDF0FAF0ABBDF28DF0
S1130668F26C039DF08DF36C009DF1ADF4BDF2DAEC
S1130678F2ADF0780000C9F0E1FFADF0BDF4FAF492
S11306888B9DF25AF2FEADF0DAF48DF2480000C9FF
S1130698F0E1FFADF0BDF4FAF48B9DF25AF2FDAD32
S11306A8F0DAF48DF2480000C9F0E5FFADF0BDF4CE
S11306B8FAF48B9DF25AF2FEADF0DAF48DF24800AA
S11306C800C9F0E5FFADF0BDF4FAF48B9DF25AF2DF
S11306D8FDADF0DAF48DF248000061EFC061CFD7C8
S11306E8C9F4E5FFADF4BDF0FAF08B9DF66AF601A6
S11306F8ADF4BDF2DAF28DF6480000C9F4E5FFADB9
S1130708F4BDF0FAF08B9DF66AF602ADF4BDF2DAA8
S1130718F28DF6480000C9F66401C9F46401ADF429
S1130728BDF0FAF0ABBDF48DF46C039DF28DF56C5D
S1130738009DF3ADF6BDF4DAF4ADF2780000C9F427
S11307486A01C9F26A01ADF2BDF0FAF0ABBDF28DEF
S1130758F25CFE9DF08DF35CFF9DF1ADF4BDF2DA21
S1130768F2ADF0780000C9F0E1FFADF0BDF4FAF4A1
S11307788B9DF25AF2FEADF0DAF48DF2480000C90E
S1130788F0E1FFADF0BDF4FAF48B9DF25AF2FDAD41
S1130798F0DAF48DF2480000D72004F6B802A80A6B
S11307A844000061E8ECBA0700308100B802ECCCE0
S11307B80700F6BF02EFA80ABDF0BF0AEFA808BDFC
S11307C8F0BF04EFA802BDF0B800BDF01004D720B4
S11307D808F6B806A80E44000061E8ECF0070030FB
S11307E88100B806EC680800A80CBDF0BF08EFA8A3
S11307F80EBDF0BF06EFC9F0E5FFADF0BDF4FAF4A5
S11308088B9DF26AF201ADF0DAF48DF2480000C96A
S1130818F248FFAF08EFBDF0BDF4FAF48B9DF0ADDC
S1130828F2BDF4DAF48DF0480000AF08EFBDF0A68D
S1130838F0ADF0BF08EFAF06EFBDF0B804BDF4B8F3
S113084802B1BDF0BF06EFC9F0E5FFADF0BDF4FAA3
S1130858F48B9DF25AF2FEADF0DAF48DF248000002
S1130868A806BDF0B800BDF01008D761CFC1C3C554
S1130878C761DFC1C3C5C761EFC761CF2008C9F02D
S11308884201ADF0BDF2FAF2ABBDF08DF05C079811
S113089807C9F24A018807705100BDF0ADF2BDF4F2
S11308A8DAF4ADF07800008807D161F8ECC20800EA
S11308B888079DF09800FCD20900C9F04AFFADF002
S11308C8BDF2FAF28B9DF09806AF0AEFBDF2AF02C3
S11308D8EFBDF0ADF246F061E3EC320900AF04EF8E
S11308E8BDF088069DF2ADF0BDF4DAF48DF248004F
S11308F800AF04EFBDF0A6F0ADF0BF04EFAF02EF18
S1130908BDF0B804BDF2B802A1BDF0BF02EFAF0A52
S1130918EFBDF2AF02EFBDF0ADF246F061E8EC3F97
S11309280900FCC60900EC3F09008806705100BDA7
S1130938F0B800FCCA0900100861EFC661DFC6C43C
S1130948C2C061CFC6C4C2C061FC61CFC1C3C5C740
S113095861DFC1C3C5C761EFC761CF2004AF06EF2C
S1130968BDF044000061F8ECAF0900C9F248FFAFDC
S113097808EFBDF0BDF4FAF48B9DF0ADF2BDF4DAE6
S1130988F48DF0480000AF08EFBDF0A6F0ADF0BF5D
S113099808EFAF06EFBDF0B802BDF4B800B1BDF082
S11309A8BF06EFECB30900FCCE0900100461EFC6E2
S11309B861DFC6C4C2C061CFC6C4C2C061FCE5362B
S11309C8EFD7E51EEFD7E51DEFD7E50CEFD761CFDD
S11309D8C1C3C5C7C6C4C2C061FCC9F07700ADF0C5
S11309E8BDF2DAF2F1480000FC9B0100FCD80000DB
S11309F8FC020300FC3E0300C9F07800ADF0BDF230
S1130A08DAF2F1480000D72002717BFAFCE209000F
S1130A18E6B800BDF01002D7CF0DEF48CF0EEF6552
S1130A28CF0FEF6CCF10EF6CCF11EF6F00D720040E
S1130A38FC1F0B00FC700300FC0506003024EFB813
S1130A4800E6B802FCA10700ADF0BF22EFF6BF0034
S1130A58EF8F36EF9DF0D4F061F8EC070B00F53614
S1130A68EF8F24EF9DF04AF06C61E8EC9A0A00C914
S1130A78F007FFC9F207FFADF2BDF4FAF48B9DF25B
S1130A887AF280ADF0BDF4DAF48DF2480000ECB0EF
S1130A980A008F24EF9DF04AF06861E8ECB00A0080
S1130AA8FC200A00E6BF00EFAF00EFBDF0440000F1
S1130AB861E8ECCA0A008F24EF9DF0A4F08DF09F42
S1130AC80DEFAF00EFBDF044000061F8ECE00A0060
S1130AD8C9F00500ECE40A00C9F00100300DEFB8D4
S1130AE800ADF0B802FCD70700ADF0BF22EF302408
S1130AF8EFB800E6B802FCA10700ADF0BF22EF8F03
S1130B081DEF9DF0D4F061F8EC1B0B00F51DEFEC24
S1130B18550A00EC550A00717AFAD7250BCBF80070
S1130B28FE410061CF34E00B3600EF61DF3600EFA1
S1130B383000EF27311E440000DD0EB161CF11A94A
S1130B48BBA5A5A7A761DFEFED61CF3600EF3000A5
S1130B580061DF3038EF27311E440000DD0AB1613F
S1130B68CFBBA7A761DFEFF161CFFC0F0A0000300C
S10F0B780000C1C1C1FC360A00EFFE0001
S1130B84000000000000000000000000000000005D
S1130B94000000000000000000000000000000004D
S1130BA4000000000000000000000000000000003D
S1130BB4000000000000000000000000000000002D
S1130BC4000000000000000000000000000000001D
S10F0BD400000000000000000000000011
S9030B25CC
